{"contracts/MessageBoard.sol":{"MessageBoard":{"abi":[{"anonymous":false,"inputs":[{"indexed":true,"internalType":"address","name":"sender","type":"address"},{"indexed":false,"internalType":"string","name":"newMsg","type":"string"}],"name":"MessageUpdated","type":"event"},{"inputs":[],"name":"getMessage","outputs":[{"internalType":"string","name":"","type":"string"}],"stateMutability":"view","type":"function"},{"inputs":[],"name":"latestMessage","outputs":[{"internalType":"string","name":"","type":"string"}],"stateMutability":"view","type":"function"},{"inputs":[{"internalType":"string","name":"_msg","type":"string"}],"name":"setMessage","outputs":[],"stateMutability":"nonpayable","type":"function"}],"evm":{"bytecode":{"linkReferences":{},"object":"608060405234801561001057600080fd5b50610748806100206000396000f3fe608060405234801561001057600080fd5b50600436106100415760003560e01c806334a0779814610046578063368b877214610064578063ce6d41de14610080575b600080fd5b61004e61009e565b60405161005b91906102b4565b60405180910390f35b61007e60048036038101906100799190610345565b61012c565b005b610088610192565b60405161009591906102b4565b60405180910390f35b600080546100ab906103c1565b80601f01602080910402602001604051908101604052809291908181526020018280546100d7906103c1565b80156101245780601f106100f957610100808354040283529160200191610124565b820191906000526020600020905b81548152906001019060200180831161010757829003601f168201915b505050505081565b81816000918261013d9291906105e2565b503373ffffffffffffffffffffffffffffffffffffffff167f3f784155aa459466ce143eb76c376834c30b26979da03bd4be74cd146c4bb1c383836040516101869291906106ee565b60405180910390a25050565b6060600080546101a1906103c1565b80601f01602080910402602001604051908101604052809291908181526020018280546101cd906103c1565b801561021a5780601f106101ef5761010080835404028352916020019161021a565b820191906000526020600020905b8154815290600101906020018083116101fd57829003601f168201915b5050505050905090565b600081519050919050565b600082825260208201905092915050565b60005b8381101561025e578082015181840152602081019050610243565b60008484015250505050565b6000601f19601f8301169050919050565b600061028682610224565b610290818561022f565b93506102a0818560208601610240565b6102a98161026a565b840191505092915050565b600060208201905081810360008301526102ce818461027b565b905092915050565b600080fd5b600080fd5b600080fd5b600080fd5b600080fd5b60008083601f840112610305576103046102e0565b5b8235905067ffffffffffffffff811115610322576103216102e5565b5b60208301915083600182028301111561033e5761033d6102ea565b5b9250929050565b6000806020838503121561035c5761035b6102d6565b5b600083013567ffffffffffffffff81111561037a576103796102db565b5b610386858286016102ef565b92509250509250929050565b7f4e487b7100000000000000000000000000000000000000000000000000000000600052602260045260246000fd5b600060028204905060018216806103d957607f821691505b6020821081036103ec576103eb610392565b5b50919050565b600082905092915050565b7f4e487b7100000000000000000000000000000000000000000000000000000000600052604160045260246000fd5b60008190508160005260206000209050919050565b60006020601f8301049050919050565b600082821b905092915050565b60006008830261048e7fffffffffffffffffffffffffffffffffffffffffffffffffffffffffffffffff82610451565b6104988683610451565b95508019841693508086168417925050509392505050565b6000819050919050565b6000819050919050565b60006104df6104da6104d5846104b0565b6104ba565b6104b0565b9050919050565b6000819050919050565b6104f9836104c4565b61050d610505826104e6565b84845461045e565b825550505050565b600090565b610522610515565b61052d8184846104f0565b505050565b5b818110156105515761054660008261051a565b600181019050610533565b5050565b601f821115610596576105678161042c565b61057084610441565b8101602085101561057f578190505b61059361058b85610441565b830182610532565b50505b505050565b600082821c905092915050565b60006105b96000198460080261059b565b1980831691505092915050565b60006105d283836105a8565b9150826002028217905092915050565b6105ec83836103f2565b67ffffffffffffffff811115610605576106046103fd565b5b61060f82546103c1565b61061a828285610555565b6000601f8311600181146106495760008415610637578287013590505b61064185826105c6565b8655506106a9565b601f1984166106578661042c565b60005b8281101561067f5784890135825560018201915060208501945060208101905061065a565b8683101561069c5784890135610698601f8916826105a8565b8355505b6001600288020188555050505b50505050505050565b82818337600083830152505050565b60006106cd838561022f565b93506106da8385846106b2565b6106e38361026a565b840190509392505050565b600060208201905081810360008301526107098184866106c1565b9050939250505056fea26469706673582212206161c8d8206610e2fee5eee0b294645b890012c32c4bb361b9478528835797e764736f6c63430008180033","opcodes":"PUSH1 0x80 PUSH1 0x40 MSTORE CALLVALUE DUP1 ISZERO PUSH2 0x10 JUMPI PUSH1 0x0 DUP1 REVERT JUMPDEST POP PUSH2 0x748 DUP1 PUSH2 0x20 PUSH1 0x0 CODECOPY PUSH1 0x0 RETURN INVALID PUSH1 0x80 PUSH1 0x40 MSTORE CALLVALUE DUP1 ISZERO PUSH2 0x10 JUMPI PUSH1 0x0 DUP1 REVERT JUMPDEST POP PUSH1 0x4 CALLDATASIZE LT PUSH2 0x41 JUMPI PUSH1 0x0 CALLDATALOAD PUSH1 0xE0 SHR DUP1 PUSH4 0x34A07798 EQ PUSH2 0x46 JUMPI DUP1 PUSH4 0x368B8772 EQ PUSH2 0x64 JUMPI DUP1 PUSH4 0xCE6D41DE EQ PUSH2 0x80 JUMPI JUMPDEST PUSH1 0x0 DUP1 REVERT JUMPDEST PUSH2 0x4E PUSH2 0x9E JUMP JUMPDEST PUSH1 0x40 MLOAD PUSH2 0x5B SWAP2 SWAP1 PUSH2 0x2B4 JUMP JUMPDEST PUSH1 0x40 MLOAD DUP1 SWAP2 SUB SWAP1 RETURN JUMPDEST PUSH2 0x7E PUSH1 0x4 DUP1 CALLDATASIZE SUB DUP2 ADD SWAP1 PUSH2 0x79 SWAP2 SWAP1 PUSH2 0x345 JUMP JUMPDEST PUSH2 0x12C JUMP JUMPDEST STOP JUMPDEST PUSH2 0x88 PUSH2 0x192 JUMP JUMPDEST PUSH1 0x40 MLOAD PUSH2 0x95 SWAP2 SWAP1 PUSH2 0x2B4 JUMP JUMPDEST PUSH1 0x40 MLOAD DUP1 SWAP2 SUB SWAP1 RETURN JUMPDEST PUSH1 0x0 DUP1 SLOAD PUSH2 0xAB SWAP1 PUSH2 0x3C1 JUMP JUMPDEST DUP1 PUSH1 0x1F ADD PUSH1 0x20 DUP1 SWAP2 DIV MUL PUSH1 0x20 ADD PUSH1 0x40 MLOAD SWAP1 DUP2 ADD PUSH1 0x40 MSTORE DUP1 SWAP3 SWAP2 SWAP1 DUP2 DUP2 MSTORE PUSH1 0x20 ADD DUP3 DUP1 SLOAD PUSH2 0xD7 SWAP1 PUSH2 0x3C1 JUMP JUMPDEST DUP1 ISZERO PUSH2 0x124 JUMPI DUP1 PUSH1 0x1F LT PUSH2 0xF9 JUMPI PUSH2 0x100 DUP1 DUP4 SLOAD DIV MUL DUP4 MSTORE SWAP2 PUSH1 0x20 ADD SWAP2 PUSH2 0x124 JUMP JUMPDEST DUP3 ADD SWAP2 SWAP1 PUSH1 0x0 MSTORE PUSH1 0x20 PUSH1 0x0 KECCAK256 SWAP1 JUMPDEST DUP2 SLOAD DUP2 MSTORE SWAP1 PUSH1 0x1 ADD SWAP1 PUSH1 0x20 ADD DUP1 DUP4 GT PUSH2 0x107 JUMPI DUP3 SWAP1 SUB PUSH1 0x1F AND DUP3 ADD SWAP2 JUMPDEST POP POP POP POP POP DUP2 JUMP JUMPDEST DUP2 DUP2 PUSH1 0x0 SWAP2 DUP3 PUSH2 0x13D SWAP3 SWAP2 SWAP1 PUSH2 0x5E2 JUMP JUMPDEST POP CALLER PUSH20 0xFFFFFFFFFFFFFFFFFFFFFFFFFFFFFFFFFFFFFFFF AND PUSH32 0x3F784155AA459466CE143EB76C376834C30B26979DA03BD4BE74CD146C4BB1C3 DUP4 DUP4 PUSH1 0x40 MLOAD PUSH2 0x186 SWAP3 SWAP2 SWAP1 PUSH2 0x6EE JUMP JUMPDEST PUSH1 0x40 MLOAD DUP1 SWAP2 SUB SWAP1 LOG2 POP POP JUMP JUMPDEST PUSH1 0x60 PUSH1 0x0 DUP1 SLOAD PUSH2 0x1A1 SWAP1 PUSH2 0x3C1 JUMP JUMPDEST DUP1 PUSH1 0x1F ADD PUSH1 0x20 DUP1 SWAP2 DIV MUL PUSH1 0x20 ADD PUSH1 0x40 MLOAD SWAP1 DUP2 ADD PUSH1 0x40 MSTORE DUP1 SWAP3 SWAP2 SWAP1 DUP2 DUP2 MSTORE PUSH1 0x20 ADD DUP3 DUP1 SLOAD PUSH2 0x1CD SWAP1 PUSH2 0x3C1 JUMP JUMPDEST DUP1 ISZERO PUSH2 0x21A JUMPI DUP1 PUSH1 0x1F LT PUSH2 0x1EF JUMPI PUSH2 0x100 DUP1 DUP4 SLOAD DIV MUL DUP4 MSTORE SWAP2 PUSH1 0x20 ADD SWAP2 PUSH2 0x21A JUMP JUMPDEST DUP3 ADD SWAP2 SWAP1 PUSH1 0x0 MSTORE PUSH1 0x20 PUSH1 0x0 KECCAK256 SWAP1 JUMPDEST DUP2 SLOAD DUP2 MSTORE SWAP1 PUSH1 0x1 ADD SWAP1 PUSH1 0x20 ADD DUP1 DUP4 GT PUSH2 0x1FD JUMPI DUP3 SWAP1 SUB PUSH1 0x1F AND DUP3 ADD SWAP2 JUMPDEST POP POP POP POP POP SWAP1 POP SWAP1 JUMP JUMPDEST PUSH1 0x0 DUP2 MLOAD SWAP1 POP SWAP2 SWAP1 POP JUMP JUMPDEST PUSH1 0x0 DUP3 DUP3 MSTORE PUSH1 0x20 DUP3 ADD SWAP1 POP SWAP3 SWAP2 POP POP JUMP JUMPDEST PUSH1 0x0 JUMPDEST DUP4 DUP2 LT ISZERO PUSH2 0x25E JUMPI DUP1 DUP3 ADD MLOAD DUP2 DUP5 ADD MSTORE PUSH1 0x20 DUP2 ADD SWAP1 POP PUSH2 0x243 JUMP JUMPDEST PUSH1 0x0 DUP5 DUP5 ADD MSTORE POP POP POP POP JUMP JUMPDEST PUSH1 0x0 PUSH1 0x1F NOT PUSH1 0x1F DUP4 ADD AND SWAP1 POP SWAP2 SWAP1 POP JUMP JUMPDEST PUSH1 0x0 PUSH2 0x286 DUP3 PUSH2 0x224 JUMP JUMPDEST PUSH2 0x290 DUP2 DUP6 PUSH2 0x22F JUMP JUMPDEST SWAP4 POP PUSH2 0x2A0 DUP2 DUP6 PUSH1 0x20 DUP7 ADD PUSH2 0x240 JUMP JUMPDEST PUSH2 0x2A9 DUP2 PUSH2 0x26A JUMP JUMPDEST DUP5 ADD SWAP2 POP POP SWAP3 SWAP2 POP POP JUMP JUMPDEST PUSH1 0x0 PUSH1 0x20 DUP3 ADD SWAP1 POP DUP2 DUP2 SUB PUSH1 0x0 DUP4 ADD MSTORE PUSH2 0x2CE DUP2 DUP5 PUSH2 0x27B JUMP JUMPDEST SWAP1 POP SWAP3 SWAP2 POP POP JUMP JUMPDEST PUSH1 0x0 DUP1 REVERT JUMPDEST PUSH1 0x0 DUP1 REVERT JUMPDEST PUSH1 0x0 DUP1 REVERT JUMPDEST PUSH1 0x0 DUP1 REVERT JUMPDEST PUSH1 0x0 DUP1 REVERT JUMPDEST PUSH1 0x0 DUP1 DUP4 PUSH1 0x1F DUP5 ADD SLT PUSH2 0x305 JUMPI PUSH2 0x304 PUSH2 0x2E0 JUMP JUMPDEST JUMPDEST DUP3 CALLDATALOAD SWAP1 POP PUSH8 0xFFFFFFFFFFFFFFFF DUP2 GT ISZERO PUSH2 0x322 JUMPI PUSH2 0x321 PUSH2 0x2E5 JUMP JUMPDEST JUMPDEST PUSH1 0x20 DUP4 ADD SWAP2 POP DUP4 PUSH1 0x1 DUP3 MUL DUP4 ADD GT ISZERO PUSH2 0x33E JUMPI PUSH2 0x33D PUSH2 0x2EA JUMP JUMPDEST JUMPDEST SWAP3 POP SWAP3 SWAP1 POP JUMP JUMPDEST PUSH1 0x0 DUP1 PUSH1 0x20 DUP4 DUP6 SUB SLT ISZERO PUSH2 0x35C JUMPI PUSH2 0x35B PUSH2 0x2D6 JUMP JUMPDEST JUMPDEST PUSH1 0x0 DUP4 ADD CALLDATALOAD PUSH8 0xFFFFFFFFFFFFFFFF DUP2 GT ISZERO PUSH2 0x37A JUMPI PUSH2 0x379 PUSH2 0x2DB JUMP JUMPDEST JUMPDEST PUSH2 0x386 DUP6 DUP3 DUP7 ADD PUSH2 0x2EF JUMP JUMPDEST SWAP3 POP SWAP3 POP POP SWAP3 POP SWAP3 SWAP1 POP JUMP JUMPDEST PUSH32 0x4E487B7100000000000000000000000000000000000000000000000000000000 PUSH1 0x0 MSTORE PUSH1 0x22 PUSH1 0x4 MSTORE PUSH1 0x24 PUSH1 0x0 REVERT JUMPDEST PUSH1 0x0 PUSH1 0x2 DUP3 DIV SWAP1 POP PUSH1 0x1 DUP3 AND DUP1 PUSH2 0x3D9 JUMPI PUSH1 0x7F DUP3 AND SWAP2 POP JUMPDEST PUSH1 0x20 DUP3 LT DUP2 SUB PUSH2 0x3EC JUMPI PUSH2 0x3EB PUSH2 0x392 JUMP JUMPDEST JUMPDEST POP SWAP2 SWAP1 POP JUMP JUMPDEST PUSH1 0x0 DUP3 SWAP1 POP SWAP3 SWAP2 POP POP JUMP JUMPDEST PUSH32 0x4E487B7100000000000000000000000000000000000000000000000000000000 PUSH1 0x0 MSTORE PUSH1 0x41 PUSH1 0x4 MSTORE PUSH1 0x24 PUSH1 0x0 REVERT JUMPDEST PUSH1 0x0 DUP2 SWAP1 POP DUP2 PUSH1 0x0 MSTORE PUSH1 0x20 PUSH1 0x0 KECCAK256 SWAP1 POP SWAP2 SWAP1 POP JUMP JUMPDEST PUSH1 0x0 PUSH1 0x20 PUSH1 0x1F DUP4 ADD DIV SWAP1 POP SWAP2 SWAP1 POP JUMP JUMPDEST PUSH1 0x0 DUP3 DUP3 SHL SWAP1 POP SWAP3 SWAP2 POP POP JUMP JUMPDEST PUSH1 0x0 PUSH1 0x8 DUP4 MUL PUSH2 0x48E PUSH32 0xFFFFFFFFFFFFFFFFFFFFFFFFFFFFFFFFFFFFFFFFFFFFFFFFFFFFFFFFFFFFFFFF DUP3 PUSH2 0x451 JUMP JUMPDEST PUSH2 0x498 DUP7 DUP4 PUSH2 0x451 JUMP JUMPDEST SWAP6 POP DUP1 NOT DUP5 AND SWAP4 POP DUP1 DUP7 AND DUP5 OR SWAP3 POP POP POP SWAP4 SWAP3 POP POP POP JUMP JUMPDEST PUSH1 0x0 DUP2 SWAP1 POP SWAP2 SWAP1 POP JUMP JUMPDEST PUSH1 0x0 DUP2 SWAP1 POP SWAP2 SWAP1 POP JUMP JUMPDEST PUSH1 0x0 PUSH2 0x4DF PUSH2 0x4DA PUSH2 0x4D5 DUP5 PUSH2 0x4B0 JUMP JUMPDEST PUSH2 0x4BA JUMP JUMPDEST PUSH2 0x4B0 JUMP JUMPDEST SWAP1 POP SWAP2 SWAP1 POP JUMP JUMPDEST PUSH1 0x0 DUP2 SWAP1 POP SWAP2 SWAP1 POP JUMP JUMPDEST PUSH2 0x4F9 DUP4 PUSH2 0x4C4 JUMP JUMPDEST PUSH2 0x50D PUSH2 0x505 DUP3 PUSH2 0x4E6 JUMP JUMPDEST DUP5 DUP5 SLOAD PUSH2 0x45E JUMP JUMPDEST DUP3 SSTORE POP POP POP POP JUMP JUMPDEST PUSH1 0x0 SWAP1 JUMP JUMPDEST PUSH2 0x522 PUSH2 0x515 JUMP JUMPDEST PUSH2 0x52D DUP2 DUP5 DUP5 PUSH2 0x4F0 JUMP JUMPDEST POP POP POP JUMP JUMPDEST JUMPDEST DUP2 DUP2 LT ISZERO PUSH2 0x551 JUMPI PUSH2 0x546 PUSH1 0x0 DUP3 PUSH2 0x51A JUMP JUMPDEST PUSH1 0x1 DUP2 ADD SWAP1 POP PUSH2 0x533 JUMP JUMPDEST POP POP JUMP JUMPDEST PUSH1 0x1F DUP3 GT ISZERO PUSH2 0x596 JUMPI PUSH2 0x567 DUP2 PUSH2 0x42C JUMP JUMPDEST PUSH2 0x570 DUP5 PUSH2 0x441 JUMP JUMPDEST DUP2 ADD PUSH1 0x20 DUP6 LT ISZERO PUSH2 0x57F JUMPI DUP2 SWAP1 POP JUMPDEST PUSH2 0x593 PUSH2 0x58B DUP6 PUSH2 0x441 JUMP JUMPDEST DUP4 ADD DUP3 PUSH2 0x532 JUMP JUMPDEST POP POP JUMPDEST POP POP POP JUMP JUMPDEST PUSH1 0x0 DUP3 DUP3 SHR SWAP1 POP SWAP3 SWAP2 POP POP JUMP JUMPDEST PUSH1 0x0 PUSH2 0x5B9 PUSH1 0x0 NOT DUP5 PUSH1 0x8 MUL PUSH2 0x59B JUMP JUMPDEST NOT DUP1 DUP4 AND SWAP2 POP POP SWAP3 SWAP2 POP POP JUMP JUMPDEST PUSH1 0x0 PUSH2 0x5D2 DUP4 DUP4 PUSH2 0x5A8 JUMP JUMPDEST SWAP2 POP DUP3 PUSH1 0x2 MUL DUP3 OR SWAP1 POP SWAP3 SWAP2 POP POP JUMP JUMPDEST PUSH2 0x5EC DUP4 DUP4 PUSH2 0x3F2 JUMP JUMPDEST PUSH8 0xFFFFFFFFFFFFFFFF DUP2 GT ISZERO PUSH2 0x605 JUMPI PUSH2 0x604 PUSH2 0x3FD JUMP JUMPDEST JUMPDEST PUSH2 0x60F DUP3 SLOAD PUSH2 0x3C1 JUMP JUMPDEST PUSH2 0x61A DUP3 DUP3 DUP6 PUSH2 0x555 JUMP JUMPDEST PUSH1 0x0 PUSH1 0x1F DUP4 GT PUSH1 0x1 DUP2 EQ PUSH2 0x649 JUMPI PUSH1 0x0 DUP5 ISZERO PUSH2 0x637 JUMPI DUP3 DUP8 ADD CALLDATALOAD SWAP1 POP JUMPDEST PUSH2 0x641 DUP6 DUP3 PUSH2 0x5C6 JUMP JUMPDEST DUP7 SSTORE POP PUSH2 0x6A9 JUMP JUMPDEST PUSH1 0x1F NOT DUP5 AND PUSH2 0x657 DUP7 PUSH2 0x42C JUMP JUMPDEST PUSH1 0x0 JUMPDEST DUP3 DUP2 LT ISZERO PUSH2 0x67F JUMPI DUP5 DUP10 ADD CALLDATALOAD DUP3 SSTORE PUSH1 0x1 DUP3 ADD SWAP2 POP PUSH1 0x20 DUP6 ADD SWAP5 POP PUSH1 0x20 DUP2 ADD SWAP1 POP PUSH2 0x65A JUMP JUMPDEST DUP7 DUP4 LT ISZERO PUSH2 0x69C JUMPI DUP5 DUP10 ADD CALLDATALOAD PUSH2 0x698 PUSH1 0x1F DUP10 AND DUP3 PUSH2 0x5A8 JUMP JUMPDEST DUP4 SSTORE POP JUMPDEST PUSH1 0x1 PUSH1 0x2 DUP9 MUL ADD DUP9 SSTORE POP POP POP JUMPDEST POP POP POP POP POP POP POP JUMP JUMPDEST DUP3 DUP2 DUP4 CALLDATACOPY PUSH1 0x0 DUP4 DUP4 ADD MSTORE POP POP POP JUMP JUMPDEST PUSH1 0x0 PUSH2 0x6CD DUP4 DUP6 PUSH2 0x22F JUMP JUMPDEST SWAP4 POP PUSH2 0x6DA DUP4 DUP6 DUP5 PUSH2 0x6B2 JUMP JUMPDEST PUSH2 0x6E3 DUP4 PUSH2 0x26A JUMP JUMPDEST DUP5 ADD SWAP1 POP SWAP4 SWAP3 POP POP POP JUMP JUMPDEST PUSH1 0x0 PUSH1 0x20 DUP3 ADD SWAP1 POP DUP2 DUP2 SUB PUSH1 0x0 DUP4 ADD MSTORE PUSH2 0x709 DUP2 DUP5 DUP7 PUSH2 0x6C1 JUMP JUMPDEST SWAP1 POP SWAP4 SWAP3 POP POP POP JUMP INVALID LOG2 PUSH5 0x6970667358 0x22 SLT KECCAK256 PUSH2 0x61C8 0xD8 KECCAK256 PUSH7 0x10E2FEE5EEE0B2 SWAP5 PUSH5 0x5B890012C3 0x2C 0x4B 0xB3 PUSH2 0xB947 DUP6 0x28 DUP4 JUMPI SWAP8 0xE7 PUSH5 0x736F6C6343 STOP ADDMOD XOR STOP CALLER "},"methodIdentifiers":{"getMessage()":"ce6d41de","latestMessage()":"34a07798","setMessage(string)":"368b8772"}}}}}