{
  "_format": "hh-sol-artifact-1",
  "contractName": "MessageBoard",
  "sourceName": "contracts/MessageBoard.sol",
  "abi": [
    {
      "anonymous": false,
      "inputs": [
        {
          "indexed": true,
          "internalType": "address",
          "name": "sender",
          "type": "address"
        },
        {
          "indexed": false,
          "internalType": "string",
          "name": "newMsg",
          "type": "string"
        }
      ],
      "name": "MessageUpdated",
      "type": "event"
    },
    {
      "inputs": [],
      "name": "getMessage",
      "outputs": [
        {
          "internalType": "string",
          "name": "",
          "type": "string"
        }
      ],
      "stateMutability": "view",
      "type": "function"
    },
    {
      "inputs": [],
      "name": "latestMessage",
      "outputs": [
        {
          "internalType": "string",
          "name": "",
          "type": "string"
        }
      ],
      "stateMutability": "view",
      "type": "function"
    },
    {
      "inputs": [
        {
          "internalType": "string",
          "name": "_msg",
          "type": "string"
        }
      ],
      "name": "setMessage",
      "outputs": [],
      "stateMutability": "nonpayable",
      "type": "function"
    }
  ],
  "bytecode": "0x608060405234801561001057600080fd5b50610748806100206000396000f3fe608060405234801561001057600080fd5b50600436106100415760003560e01c806334a0779814610046578063368b877214610064578063ce6d41de14610080575b600080fd5b61004e61009e565b60405161005b91906102b4565b60405180910390f35b61007e60048036038101906100799190610345565b61012c565b005b610088610192565b60405161009591906102b4565b60405180910390f35b600080546100ab906103c1565b80601f01602080910402602001604051908101604052809291908181526020018280546100d7906103c1565b80156101245780601f106100f957610100808354040283529160200191610124565b820191906000526020600020905b81548152906001019060200180831161010757829003601f168201915b505050505081565b81816000918261013d9291906105e2565b503373ffffffffffffffffffffffffffffffffffffffff167f3f784155aa459466ce143eb76c376834c30b26979da03bd4be74cd146c4bb1c383836040516101869291906106ee565b60405180910390a25050565b6060600080546101a1906103c1565b80601f01602080910402602001604051908101604052809291908181526020018280546101cd906103c1565b801561021a5780601f106101ef5761010080835404028352916020019161021a565b820191906000526020600020905b8154815290600101906020018083116101fd57829003601f168201915b5050505050905090565b600081519050919050565b600082825260208201905092915050565b60005b8381101561025e578082015181840152602081019050610243565b60008484015250505050565b6000601f19601f8301169050919050565b600061028682610224565b610290818561022f565b93506102a0818560208601610240565b6102a98161026a565b840191505092915050565b600060208201905081810360008301526102ce818461027b565b905092915050565b600080fd5b600080fd5b600080fd5b600080fd5b600080fd5b60008083601f840112610305576103046102e0565b5b8235905067ffffffffffffffff811115610322576103216102e5565b5b60208301915083600182028301111561033e5761033d6102ea565b5b9250929050565b6000806020838503121561035c5761035b6102d6565b5b600083013567ffffffffffffffff81111561037a576103796102db565b5b610386858286016102ef565b92509250509250929050565b7f4e487b7100000000000000000000000000000000000000000000000000000000600052602260045260246000fd5b600060028204905060018216806103d957607f821691505b6020821081036103ec576103eb610392565b5b50919050565b600082905092915050565b7f4e487b7100000000000000000000000000000000000000000000000000000000600052604160045260246000fd5b60008190508160005260206000209050919050565b60006020601f8301049050919050565b600082821b905092915050565b60006008830261048e7fffffffffffffffffffffffffffffffffffffffffffffffffffffffffffffffff82610451565b6104988683610451565b95508019841693508086168417925050509392505050565b6000819050919050565b6000819050919050565b60006104df6104da6104d5846104b0565b6104ba565b6104b0565b9050919050565b6000819050919050565b6104f9836104c4565b61050d610505826104e6565b84845461045e565b825550505050565b600090565b610522610515565b61052d8184846104f0565b505050565b5b818110156105515761054660008261051a565b600181019050610533565b5050565b601f821115610596576105678161042c565b61057084610441565b8101602085101561057f578190505b61059361058b85610441565b830182610532565b50505b505050565b600082821c905092915050565b60006105b96000198460080261059b565b1980831691505092915050565b60006105d283836105a8565b9150826002028217905092915050565b6105ec83836103f2565b67ffffffffffffffff811115610605576106046103fd565b5b61060f82546103c1565b61061a828285610555565b6000601f8311600181146106495760008415610637578287013590505b61064185826105c6565b8655506106a9565b601f1984166106578661042c565b60005b8281101561067f5784890135825560018201915060208501945060208101905061065a565b8683101561069c5784890135610698601f8916826105a8565b8355505b6001600288020188555050505b50505050505050565b82818337600083830152505050565b60006106cd838561022f565b93506106da8385846106b2565b6106e38361026a565b840190509392505050565b600060208201905081810360008301526107098184866106c1565b9050939250505056fea26469706673582212206161c8d8206610e2fee5eee0b294645b890012c32c4bb361b9478528835797e764736f6c63430008180033",
  "linkReferences": {},
  "deployedLinkReferences": {}
}